{
    "abi": [
        {
            "type": "constructor",
            "inputs": [],
            "stateMutability": "nonpayable"
        },
        {
            "type": "function",
            "name": "addAigcData",
            "inputs": [
                {
                    "name": "tokenId",
                    "type": "uint256",
                    "internalType": "uint256"
                },
                {
                    "name": "prompt",
                    "type": "bytes",
                    "internalType": "bytes"
                },
                {
                    "name": "aigcData",
                    "type": "bytes",
                    "internalType": "bytes"
                },
                {
                    "name": "proof",
                    "type": "bytes",
                    "internalType": "bytes"
                }
            ],
            "outputs": [],
            "stateMutability": "nonpayable"
        },
        {
            "type": "function",
            "name": "aigcData",
            "inputs": [
                {
                    "name": "",
                    "type": "bytes",
                    "internalType": "bytes"
                }
            ],
            "outputs": [
                {
                    "name": "fortune",
                    "type": "bytes",
                    "internalType": "bytes"
                },
                {
                    "name": "imageCID",
                    "type": "bytes",
                    "internalType": "bytes"
                },
                {
                    "name": "author",
                    "type": "address",
                    "internalType": "address"
                }
            ],
            "stateMutability": "view"
        },
        {
            "type": "function",
            "name": "approve",
            "inputs": [
                {
                    "name": "to",
                    "type": "address",
                    "internalType": "address"
                },
                {
                    "name": "tokenId",
                    "type": "uint256",
                    "internalType": "uint256"
                }
            ],
            "outputs": [],
            "stateMutability": "nonpayable"
        },
        {
            "type": "function",
            "name": "balanceOf",
            "inputs": [
                {
                    "name": "owner",
                    "type": "address",
                    "internalType": "address"
                }
            ],
            "outputs": [
                {
                    "name": "",
                    "type": "uint256",
                    "internalType": "uint256"
                }
            ],
            "stateMutability": "view"
        },
        {
            "type": "function",
            "name": "getApproved",
            "inputs": [
                {
                    "name": "tokenId",
                    "type": "uint256",
                    "internalType": "uint256"
                }
            ],
            "outputs": [
                {
                    "name": "",
                    "type": "address",
                    "internalType": "address"
                }
            ],
            "stateMutability": "view"
        },
        {
            "type": "function",
            "name": "getOwnedTokens",
            "inputs": [
                {
                    "name": "owner",
                    "type": "address",
                    "internalType": "address"
                }
            ],
            "outputs": [
                {
                    "name": "",
                    "type": "uint256[]",
                    "internalType": "uint256[]"
                }
            ],
            "stateMutability": "view"
        },
        {
            "type": "function",
            "name": "isApprovedForAll",
            "inputs": [
                {
                    "name": "owner",
                    "type": "address",
                    "internalType": "address"
                },
                {
                    "name": "operator",
                    "type": "address",
                    "internalType": "address"
                }
            ],
            "outputs": [
                {
                    "name": "",
                    "type": "bool",
                    "internalType": "bool"
                }
            ],
            "stateMutability": "view"
        },
        {
            "type": "function",
            "name": "name",
            "inputs": [],
            "outputs": [
                {
                    "name": "",
                    "type": "string",
                    "internalType": "string"
                }
            ],
            "stateMutability": "view"
        },
        {
            "type": "function",
            "name": "ownedTokens",
            "inputs": [
                {
                    "name": "",
                    "type": "address",
                    "internalType": "address"
                },
                {
                    "name": "",
                    "type": "uint256",
                    "internalType": "uint256"
                }
            ],
            "outputs": [
                {
                    "name": "",
                    "type": "uint256",
                    "internalType": "uint256"
                }
            ],
            "stateMutability": "view"
        },
        {
            "type": "function",
            "name": "ownerOf",
            "inputs": [
                {
                    "name": "tokenId",
                    "type": "uint256",
                    "internalType": "uint256"
                }
            ],
            "outputs": [
                {
                    "name": "",
                    "type": "address",
                    "internalType": "address"
                }
            ],
            "stateMutability": "view"
        },
        {
            "type": "function",
            "name": "promptToTokenId",
            "inputs": [
                {
                    "name": "",
                    "type": "bytes",
                    "internalType": "bytes"
                }
            ],
            "outputs": [
                {
                    "name": "",
                    "type": "uint256",
                    "internalType": "uint256"
                }
            ],
            "stateMutability": "view"
        },
        {
            "type": "function",
            "name": "safeTransferFrom",
            "inputs": [
                {
                    "name": "from",
                    "type": "address",
                    "internalType": "address"
                },
                {
                    "name": "to",
                    "type": "address",
                    "internalType": "address"
                },
                {
                    "name": "tokenId",
                    "type": "uint256",
                    "internalType": "uint256"
                }
            ],
            "outputs": [],
            "stateMutability": "nonpayable"
        },
        {
            "type": "function",
            "name": "safeTransferFrom",
            "inputs": [
                {
                    "name": "from",
                    "type": "address",
                    "internalType": "address"
                },
                {
                    "name": "to",
                    "type": "address",
                    "internalType": "address"
                },
                {
                    "name": "tokenId",
                    "type": "uint256",
                    "internalType": "uint256"
                },
                {
                    "name": "data",
                    "type": "bytes",
                    "internalType": "bytes"
                }
            ],
            "outputs": [],
            "stateMutability": "nonpayable"
        },
        {
            "type": "function",
            "name": "setApprovalForAll",
            "inputs": [
                {
                    "name": "operator",
                    "type": "address",
                    "internalType": "address"
                },
                {
                    "name": "approved",
                    "type": "bool",
                    "internalType": "bool"
                }
            ],
            "outputs": [],
            "stateMutability": "nonpayable"
        },
        {
            "type": "function",
            "name": "supportsInterface",
            "inputs": [
                {
                    "name": "interfaceId",
                    "type": "bytes4",
                    "internalType": "bytes4"
                }
            ],
            "outputs": [
                {
                    "name": "",
                    "type": "bool",
                    "internalType": "bool"
                }
            ],
            "stateMutability": "view"
        },
        {
            "type": "function",
            "name": "symbol",
            "inputs": [],
            "outputs": [
                {
                    "name": "",
                    "type": "string",
                    "internalType": "string"
                }
            ],
            "stateMutability": "view"
        },
        {
            "type": "function",
            "name": "tokenIdToPrompt",
            "inputs": [
                {
                    "name": "",
                    "type": "uint256",
                    "internalType": "uint256"
                }
            ],
            "outputs": [
                {
                    "name": "",
                    "type": "bytes",
                    "internalType": "bytes"
                }
            ],
            "stateMutability": "view"
        },
        {
            "type": "function",
            "name": "tokenURI",
            "inputs": [
                {
                    "name": "tokenId",
                    "type": "uint256",
                    "internalType": "uint256"
                }
            ],
            "outputs": [
                {
                    "name": "",
                    "type": "string",
                    "internalType": "string"
                }
            ],
            "stateMutability": "view"
        },
        {
            "type": "function",
            "name": "totalSupply",
            "inputs": [],
            "outputs": [
                {
                    "name": "",
                    "type": "uint256",
                    "internalType": "uint256"
                }
            ],
            "stateMutability": "view"
        },
        {
            "type": "function",
            "name": "transferFrom",
            "inputs": [
                {
                    "name": "from",
                    "type": "address",
                    "internalType": "address"
                },
                {
                    "name": "to",
                    "type": "address",
                    "internalType": "address"
                },
                {
                    "name": "tokenId",
                    "type": "uint256",
                    "internalType": "uint256"
                }
            ],
            "outputs": [],
            "stateMutability": "nonpayable"
        },
        {
            "type": "function",
            "name": "verify",
            "inputs": [
                {
                    "name": "prompt",
                    "type": "bytes",
                    "internalType": "bytes"
                },
                {
                    "name": "aigcData",
                    "type": "bytes",
                    "internalType": "bytes"
                },
                {
                    "name": "proof",
                    "type": "bytes",
                    "internalType": "bytes"
                }
            ],
            "outputs": [
                {
                    "name": "success",
                    "type": "bool",
                    "internalType": "bool"
                }
            ],
            "stateMutability": "view"
        },
        {
            "type": "event",
            "name": "AigcData",
            "inputs": [
                {
                    "name": "tokenId",
                    "type": "uint256",
                    "indexed": true,
                    "internalType": "uint256"
                },
                {
                    "name": "prompt",
                    "type": "bytes",
                    "indexed": true,
                    "internalType": "bytes"
                },
                {
                    "name": "aigcData",
                    "type": "bytes",
                    "indexed": false,
                    "internalType": "bytes"
                },
                {
                    "name": "proof",
                    "type": "bytes",
                    "indexed": false,
                    "internalType": "bytes"
                }
            ],
            "anonymous": false
        },
        {
            "type": "event",
            "name": "Approval",
            "inputs": [
                {
                    "name": "owner",
                    "type": "address",
                    "indexed": true,
                    "internalType": "address"
                },
                {
                    "name": "approved",
                    "type": "address",
                    "indexed": true,
                    "internalType": "address"
                },
                {
                    "name": "tokenId",
                    "type": "uint256",
                    "indexed": true,
                    "internalType": "uint256"
                }
            ],
            "anonymous": false
        },
        {
            "type": "event",
            "name": "ApprovalForAll",
            "inputs": [
                {
                    "name": "owner",
                    "type": "address",
                    "indexed": true,
                    "internalType": "address"
                },
                {
                    "name": "operator",
                    "type": "address",
                    "indexed": true,
                    "internalType": "address"
                },
                {
                    "name": "approved",
                    "type": "bool",
                    "indexed": false,
                    "internalType": "bool"
                }
            ],
            "anonymous": false
        },
        {
            "type": "event",
            "name": "Transfer",
            "inputs": [
                {
                    "name": "from",
                    "type": "address",
                    "indexed": true,
                    "internalType": "address"
                },
                {
                    "name": "to",
                    "type": "address",
                    "indexed": true,
                    "internalType": "address"
                },
                {
                    "name": "tokenId",
                    "type": "uint256",
                    "indexed": true,
                    "internalType": "uint256"
                }
            ],
            "anonymous": false
        },
        {
            "type": "error",
            "name": "ERC721IncorrectOwner",
            "inputs": [
                {
                    "name": "sender",
                    "type": "address",
                    "internalType": "address"
                },
                {
                    "name": "tokenId",
                    "type": "uint256",
                    "internalType": "uint256"
                },
                {
                    "name": "owner",
                    "type": "address",
                    "internalType": "address"
                }
            ]
        },
        {
            "type": "error",
            "name": "ERC721InsufficientApproval",
            "inputs": [
                {
                    "name": "operator",
                    "type": "address",
                    "internalType": "address"
                },
                {
                    "name": "tokenId",
                    "type": "uint256",
                    "internalType": "uint256"
                }
            ]
        },
        {
            "type": "error",
            "name": "ERC721InvalidApprover",
            "inputs": [
                {
                    "name": "approver",
                    "type": "address",
                    "internalType": "address"
                }
            ]
        },
        {
            "type": "error",
            "name": "ERC721InvalidOperator",
            "inputs": [
                {
                    "name": "operator",
                    "type": "address",
                    "internalType": "address"
                }
            ]
        },
        {
            "type": "error",
            "name": "ERC721InvalidOwner",
            "inputs": [
                {
                    "name": "owner",
                    "type": "address",
                    "internalType": "address"
                }
            ]
        },
        {
            "type": "error",
            "name": "ERC721InvalidReceiver",
            "inputs": [
                {
                    "name": "receiver",
                    "type": "address",
                    "internalType": "address"
                }
            ]
        },
        {
            "type": "error",
            "name": "ERC721InvalidSender",
            "inputs": [
                {
                    "name": "sender",
                    "type": "address",
                    "internalType": "address"
                }
            ]
        },
        {
            "type": "error",
            "name": "ERC721NonexistentToken",
            "inputs": [
                {
                    "name": "tokenId",
                    "type": "uint256",
                    "internalType": "uint256"
                }
            ]
        }
    ],
    "bytecode": {
        "object": "0x608060405234801561001057600080fd5b50604051806040016040528060128152602001714f6e2d636861696e204149204f7261636c6560701b815250604051806040016040528060038152602001624f414f60e81b8152508160009081610067919061011b565b506001610074828261011b565b5050506101d9565b634e487b7160e01b600052604160045260246000fd5b600181811c908216806100a657607f821691505b6020821081036100c657634e487b7160e01b600052602260045260246000fd5b50919050565b601f82111561011657806000526020600020601f840160051c810160208510156100f35750805b601f840160051c820191505b8181101561011357600081556001016100ff565b50505b505050565b81516001600160401b038111156101345761013461007c565b610148816101428454610092565b846100cc565b6020601f82116001811461017c57600083156101645750848201515b600019600385901b1c1916600184901b178455610113565b600084815260208120601f198516915b828110156101ac578785015182556020948501946001909201910161018c565b50848210156101ca5786840151600019600387901b60f8161c191681555b50505050600190811b01905550565b611553806101e86000396000f3fe608060405234801561001057600080fd5b50600436106101375760003560e01c80638a86a6c3116100b8578063b88d4fde1161007c578063b88d4fde146102ae578063c87b56dd146102c1578063d9d61655146102d4578063de8f50a1146102f4578063e149f0361461030e578063e985e9c51461032157600080fd5b80638a86a6c31461022f57806395d89b4114610251578063a22cb46514610259578063aa2e084e1461026c578063aea305071461029757600080fd5b806323b872dd116100ff57806323b872dd146101d05780633d837bf8146101e357806342842e0e146101f65780636352211e1461020957806370a082311461021c57600080fd5b806301ffc9a71461013c57806306fdde0314610164578063081812fc14610179578063095ea7b3146101a457806318160ddd146101b9575b600080fd5b61014f61014a366004610f2f565b610334565b60405190151581526020015b60405180910390f35b61016c610395565b60405161015b9190610fa3565b61018c610187366004610fb6565b610427565b6040516001600160a01b03909116815260200161015b565b6101b76101b2366004610feb565b610450565b005b6101c260065481565b60405190815260200161015b565b6101b76101de366004611015565b61045f565b61016c6101f1366004610fb6565b6104ef565b6101b7610204366004611015565b610589565b61018c610217366004610fb6565b6105a9565b6101c261022a366004611052565b6105b4565b61024261023d366004611112565b6105fc565b60405161015b93929190611147565b61016c610742565b6101b7610267366004611185565b610751565b6101c261027a366004611112565b8051602081830181018051600a8252928201919093012091525481565b6101b76102a536600461120a565b50505050505050565b6101b76102bc3660046112ba565b61075c565b61016c6102cf366004610fb6565b610773565b6102e76102e2366004611052565b610924565b60405161015b9190611322565b61014f610302366004611365565b60009695505050505050565b6101c261031c366004610feb565b610990565b61014f61032f36600461140b565b6109c1565b60006001600160e01b031982166301ffc9a760e01b148061036557506001600160e01b0319821663da0d82f560e01b145b8061038057506001600160e01b03198216635b5e139f60e01b145b8061038f575061038f826109ef565b92915050565b6060600080546103a49061143e565b80601f01602080910402602001604051908101604052809291908181526020018280546103d09061143e565b801561041d5780601f106103f25761010080835404028352916020019161041d565b820191906000526020600020905b81548152906001019060200180831161040057829003601f168201915b5050505050905090565b600061043282610a3f565b506000828152600460205260409020546001600160a01b031661038f565b61045b828233610a78565b5050565b6001600160a01b03821661048e57604051633250574960e11b8152600060048201526024015b60405180910390fd5b600061049b838333610a85565b9050836001600160a01b0316816001600160a01b0316146104e9576040516364283d7b60e01b81526001600160a01b0380861660048301526024820184905282166044820152606401610485565b50505050565b600860205260009081526040902080546105089061143e565b80601f01602080910402602001604051908101604052809291908181526020018280546105349061143e565b80156105815780601f1061055657610100808354040283529160200191610581565b820191906000526020600020905b81548152906001019060200180831161056457829003601f168201915b505050505081565b6105a48383836040518060200160405280600081525061075c565b505050565b600061038f82610a3f565b60006001600160a01b0382166105e0576040516322718ad960e21b815260006004820152602401610485565b506001600160a01b031660009081526003602052604090205490565b80516020818301810180516007825292820191909301209152805481906106229061143e565b80601f016020809104026020016040519081016040528092919081815260200182805461064e9061143e565b801561069b5780601f106106705761010080835404028352916020019161069b565b820191906000526020600020905b81548152906001019060200180831161067e57829003601f168201915b5050505050908060010180546106b09061143e565b80601f01602080910402602001604051908101604052809291908181526020018280546106dc9061143e565b80156107295780601f106106fe57610100808354040283529160200191610729565b820191906000526020600020905b81548152906001019060200180831161070c57829003601f168201915b505050600290930154919250506001600160a01b031683565b6060600180546103a49061143e565b61045b338383610b7e565b61076784848461045f565b6104e984848484610c1d565b606061077e82610a3f565b50600082815260086020526040812080546107989061143e565b80601f01602080910402602001604051908101604052809291908181526020018280546107c49061143e565b80156108115780601f106107e657610100808354040283529160200191610811565b820191906000526020600020905b8154815290600101906020018083116107f457829003601f168201915b50505050509050600060078260405161082a9190611478565b908152602001604051809103902060010180546108469061143e565b80601f01602080910402602001604051908101604052809291908181526020018280546108729061143e565b80156108bf5780601f10610894576101008083540402835291602001916108bf565b820191906000526020600020905b8154815290600101906020018083116108a257829003601f168201915b505060408051808201909152601581527468747470733a2f2f697066732e696f2f697066732f60581b60208201529394506108f992505050565b808260405160200161090c929190611494565b60405160208183030381529060405295945050505050565b6001600160a01b03811660009081526009602090815260409182902080548351818402810184019094528084526060939283018282801561098457602002820191906000526020600020905b815481526020019060010190808311610970575b50505050509050919050565b600960205281600052604060002081815481106109ac57600080fd5b90600052602060002001600091509150505481565b6001600160a01b03918216600090815260056020908152604080832093909416825291909152205460ff1690565b60006001600160e01b031982166380ac58cd60e01b1480610a2057506001600160e01b03198216635b5e139f60e01b145b8061038f57506301ffc9a760e01b6001600160e01b031983161461038f565b6000818152600260205260408120546001600160a01b03168061038f57604051637e27328960e01b815260048101849052602401610485565b6105a48383836001610d46565b6000828152600260205260408120546001600160a01b0390811690831615610ab257610ab2818486610e4c565b6001600160a01b03811615610af057610acf600085600080610d46565b6001600160a01b038116600090815260036020526040902080546000190190555b6001600160a01b03851615610b1f576001600160a01b0385166000908152600360205260409020805460010190555b60008481526002602052604080822080546001600160a01b0319166001600160a01b0389811691821790925591518793918516917fddf252ad1be2c89b69c2b068fc378daa952ba7f163c4a11628f55a4df523b3ef91a4949350505050565b6001600160a01b038216610bb057604051630b61174360e31b81526001600160a01b0383166004820152602401610485565b6001600160a01b03838116600081815260056020908152604080832094871680845294825291829020805460ff191686151590811790915591519182527f17307eab39ab6107e8899845ad3d59bd9653f200f220920489ca2b5937696c31910160405180910390a3505050565b6001600160a01b0383163b156104e957604051630a85bd0160e11b81526001600160a01b0384169063150b7a0290610c5f9033908890879087906004016114c3565b6020604051808303816000875af1925050508015610c9a575060408051601f3d908101601f19168201909252610c9791810190611500565b60015b610d03573d808015610cc8576040519150601f19603f3d011682016040523d82523d6000602084013e610ccd565b606091505b508051600003610cfb57604051633250574960e11b81526001600160a01b0385166004820152602401610485565b805181602001fd5b6001600160e01b03198116630a85bd0160e11b14610d3f57604051633250574960e11b81526001600160a01b0385166004820152602401610485565b5050505050565b8080610d5a57506001600160a01b03821615155b15610e1c576000610d6a84610a3f565b90506001600160a01b03831615801590610d965750826001600160a01b0316816001600160a01b031614155b8015610da95750610da781846109c1565b155b15610dd25760405163a9fbf51f60e01b81526001600160a01b0384166004820152602401610485565b8115610e1a5783856001600160a01b0316826001600160a01b03167f8c5be1e5ebec7d5bd14f71427d1e84f3dd0314c0f7b2291e5b200ac8c7c3b92560405160405180910390a45b505b5050600090815260046020526040902080546001600160a01b0319166001600160a01b0392909216919091179055565b610e57838383610eb0565b6105a4576001600160a01b038316610e8557604051637e27328960e01b815260048101829052602401610485565b60405163177e802f60e01b81526001600160a01b038316600482015260248101829052604401610485565b60006001600160a01b03831615801590610f0e5750826001600160a01b0316846001600160a01b03161480610eea5750610eea84846109c1565b80610f0e57506000828152600460205260409020546001600160a01b038481169116145b949350505050565b6001600160e01b031981168114610f2c57600080fd5b50565b600060208284031215610f4157600080fd5b8135610f4c81610f16565b9392505050565b60005b83811015610f6e578181015183820152602001610f56565b50506000910152565b60008151808452610f8f816020860160208601610f53565b601f01601f19169290920160200192915050565b602081526000610f4c6020830184610f77565b600060208284031215610fc857600080fd5b5035919050565b80356001600160a01b0381168114610fe657600080fd5b919050565b60008060408385031215610ffe57600080fd5b61100783610fcf565b946020939093013593505050565b60008060006060848603121561102a57600080fd5b61103384610fcf565b925061104160208501610fcf565b929592945050506040919091013590565b60006020828403121561106457600080fd5b610f4c82610fcf565b634e487b7160e01b600052604160045260246000fd5b600082601f83011261109457600080fd5b813567ffffffffffffffff8111156110ae576110ae61106d565b604051601f8201601f19908116603f0116810167ffffffffffffffff811182821017156110dd576110dd61106d565b6040528181528382016020018510156110f557600080fd5b816020850160208301376000918101602001919091529392505050565b60006020828403121561112457600080fd5b813567ffffffffffffffff81111561113b57600080fd5b610f0e84828501611083565b60608152600061115a6060830186610f77565b828103602084015261116c8186610f77565b91505060018060a01b0383166040830152949350505050565b6000806040838503121561119857600080fd5b6111a183610fcf565b9150602083013580151581146111b657600080fd5b809150509250929050565b60008083601f8401126111d357600080fd5b50813567ffffffffffffffff8111156111eb57600080fd5b60208301915083602082850101111561120357600080fd5b9250929050565b60008060008060008060006080888a03121561122557600080fd5b87359650602088013567ffffffffffffffff81111561124357600080fd5b61124f8a828b016111c1565b909750955050604088013567ffffffffffffffff81111561126f57600080fd5b61127b8a828b016111c1565b909550935050606088013567ffffffffffffffff81111561129b57600080fd5b6112a78a828b016111c1565b989b979a50959850939692959293505050565b600080600080608085870312156112d057600080fd5b6112d985610fcf565b93506112e760208601610fcf565b925060408501359150606085013567ffffffffffffffff81111561130a57600080fd5b61131687828801611083565b91505092959194509250565b602080825282518282018190526000918401906040840190835b8181101561135a57835183526020938401939092019160010161133c565b509095945050505050565b6000806000806000806060878903121561137e57600080fd5b863567ffffffffffffffff81111561139557600080fd5b6113a189828a016111c1565b909750955050602087013567ffffffffffffffff8111156113c157600080fd5b6113cd89828a016111c1565b909550935050604087013567ffffffffffffffff8111156113ed57600080fd5b6113f989828a016111c1565b979a9699509497509295939492505050565b6000806040838503121561141e57600080fd5b61142783610fcf565b915061143560208401610fcf565b90509250929050565b600181811c9082168061145257607f821691505b60208210810361147257634e487b7160e01b600052602260045260246000fd5b50919050565b6000825161148a818460208701610f53565b9190910192915050565b600083516114a6818460208801610f53565b8351908301906114ba818360208801610f53565b01949350505050565b6001600160a01b03858116825284166020820152604081018390526080606082018190526000906114f690830184610f77565b9695505050505050565b60006020828403121561151257600080fd5b8151610f4c81610f1656fea26469706673582212200e677b0867943f43f23a197fc97a908133e119c18cf376f5af116fa48d2a4e9464736f6c634300081b0033",
        "linkReferences": {}
    },
    "methodIdentifiers": {
        "addAigcData(uint256,bytes,bytes,bytes)": "aea30507",
        "aigcData(bytes)": "8a86a6c3",
        "approve(address,uint256)": "095ea7b3",
        "balanceOf(address)": "70a08231",
        "getApproved(uint256)": "081812fc",
        "getOwnedTokens(address)": "d9d61655",
        "isApprovedForAll(address,address)": "e985e9c5",
        "name()": "06fdde03",
        "ownedTokens(address,uint256)": "e149f036",
        "ownerOf(uint256)": "6352211e",
        "promptToTokenId(bytes)": "aa2e084e",
        "safeTransferFrom(address,address,uint256)": "42842e0e",
        "safeTransferFrom(address,address,uint256,bytes)": "b88d4fde",
        "setApprovalForAll(address,bool)": "a22cb465",
        "supportsInterface(bytes4)": "01ffc9a7",
        "symbol()": "95d89b41",
        "tokenIdToPrompt(uint256)": "3d837bf8",
        "tokenURI(uint256)": "c87b56dd",
        "totalSupply()": "18160ddd",
        "transferFrom(address,address,uint256)": "23b872dd",
        "verify(bytes,bytes,bytes)": "de8f50a1"
    },
    "id": 22
}